:100000000C9462000C948A000C948A000C948A0070
:100010000C948A000C948A000C948A000C948A0038
:100020000C948A000C948A000C948A000C94E104CD
:100030000C948A000C948A000C948A000C948A0018
:100040000C9497040C948A000C9465040C943F045F
:100050000C948A000C948A000C948A000C948A00F8
:100060000C948A000C948A000000000024002700F1
:100070002A0000000000250028002B0000000008D6
:10008000000201000003040700000000000000005F
:1000900000000000230026002900040404040404D6
:1000A0000404020202020202030303030303010227
:1000B00004081020408001020408102001020408F6
:1000C0001020E20511241FBECFEFD8E0DEBFCDBF68
:1000D00011E0A0E0B1E0EEEBF4E102C005900D927A
:1000E000A63BB107D9F722E0A6EBB1E001C01D9213
:1000F000AE38B207E1F710E0C2E6D0E004C02197C5
:10010000FE010E94570AC136D107C9F70E9459065D
:100110000C945D0A0C940000AF92BF92CF92DF92D4
:10012000EF92FF920F931F93CF93DF936C017B01AC
:100130008B01040F151FEB015E01AE18BF08C0173D
:10014000D10759F06991D601ED91FC910190F081B0
:10015000E02DC6010995892B79F7C501DF91CF9173
:100160001F910F91FF90EF90DF90CF90BF90AF90D5
:100170000895FC01538D448D252F30E0842F90E0AD
:10018000821B930B541710F0CF9608950197089592
:10019000FC01918D828D981761F0A28DAE0FBF2F5B
:1001A000B11D5D968C91928D9F5F9F73928F90E0B1
:1001B00008958FEF9FEF0895FC01918D828D981720
:1001C00031F0828DE80FF11D858D90E008958FEF5D
:1001D0009FEF0895FC01918D228D892F90E0805C26
:1001E0009F4F821B91098F739927089586EC91E0A8
:1001F0000E94EA0021E0892B09F420E0822F089573
:1002000080E090E0892B29F00E94F60081110C9487
:1002100000000895FC01A48DA80FB92FB11DA35AA9
:10022000BF4F2C91848D90E001968F739927848F16
:10023000A689B7892C93A089B1898C918370806439
:100240008C93938D848D981306C00288F389E02DDA
:1002500080818F7D80830895EF92FF920F931F938B
:10026000CF93DF93EC0181E0888F9B8D8C8D981369
:100270001AC0E889F989808185FF15C09FB7F89475
:10028000EE89FF896083E889F989808183708064C1
:1002900080839FBF81E090E0DF91CF911F910F910C
:1002A000FF90EF900895F62E0B8D10E00F5F1F4F1B
:1002B0000F731127E02E8C8D8E110CC00FB607FC2A
:1002C000FACFE889F989808185FFF5CFCE010E94B8
:1002D0000A01F1CFEB8DEC0FFD2FF11DE35AFF4F1B
:1002E000F0829FB7F8940B8FEA89FB898081806246
:1002F000CFCFCF93DF93EC01888D8823B9F0AA8903
:10030000BB89E889F9898C9185FD03C0808186FDD0
:100310000DC00FB607FCF7CF8C9185FFF2CF80811F
:1003200085FFEDCFCE010E940A01E9CFDF91CF9189
:100330000895833081F028F4813099F08230A9F05B
:1003400008958730A9F08830C9F08430B1F48091E5
:1003500080008F7D03C0809180008F778093800024
:10036000089584B58F7784BD089584B58F7DFBCFC4
:100370008091B0008F778093B00008958091B00095
:100380008F7DF9CFCF93DF93282F30E0F901E45828
:10039000FF4F8491F901E255FF4FD491F901E656E0
:1003A000FF4FC491CC23A1F081110E949901EC2F41
:1003B000F0E0EE0FFF1FE057FF4FA591B491EC91D5
:1003C000ED2381E090E009F480E0DF91CF91089582
:1003D00080E090E0FACF1F93CF93DF93282F30E097
:1003E000F901E458FF4F8491F901E255FF4FD49190
:1003F000F901E656FF4FC491CC23A9F0162F8111C5
:100400000E949901EC2FF0E0EE0FFF1FEE58FF4F16
:10041000A591B4918FB7F894EC91111108C0D095C3
:10042000DE23DC938FBFDF91CF911F910895DE2BE8
:10043000F8CFCF93DF9390E0FC01E255FF4F24917A
:1004400086569F4FFC0184918823D1F090E0880F5D
:10045000991FFC01E859FF4FA591B491FC01EE589A
:10046000FF4FC591D49161110EC09FB7F8948C9144
:10047000E22FE0958E238C932881E223E8839FBFAF
:10048000DF91CF9108958FB7F894EC91E22BEC9324
:100490008FBFF6CF3FB7F8948091BC019091BD011A
:1004A000A091BE01B091BF0126B5A89B05C02F3F0A
:1004B00019F00196A11DB11D3FBFBA2FA92F982F8A
:1004C0008827BC01CD01620F711D811D911D42E085
:1004D000660F771F881F991F4A95D1F708958F924D
:1004E0009F92AF92BF92CF92DF92EF92FF924B0119
:1004F0005C010E944A026B017C010E944A026C1955
:100500007D098E099F09683E734081059105A8F316
:1005100021E0821A9108A108B10888EEC80E83E094
:10052000D81EE11CF11C81149104A104B10429F727
:10053000FF90EF90DF90CF90BF90AF909F908F9003
:100540000895CF92DF92EF92FF92CF93DF93EC0169
:10055000603282E07807CCF5653B710514F064EBFE
:1005600070E0898128E830E0281B310987FD339548
:10057000220F331F220F331F6901330FEE08FF08CC
:100580008A8128E532E0281B310987FD3395220F47
:10059000331F220F331F032E000C440B550B2C1955
:1005A0003D094E095F09DB0177FF02C0B0E0A0E022
:1005B0000E94DC0824EB30E040E050E00E94B208EA
:1005C000C20ED31EE41EF51EB601E881EC3070F5B4
:1005D000298188E890E0821B910927FD9395880F77
:1005E000991F880F991F681779077CF02A8188E581
:1005F00092E0821B910927FD9395880F991F880F20
:10060000991F681779070CF4CB010297880F991F7F
:100610004FB7F8942E2F30E0F901EE0FFF1FE20FD5
:10062000F31FED59FD4F928381834FBFDF91CF912F
:10063000FF90EF90DF90CF9008951F93CF93DF93BB
:10064000EC01162F88818C3008F04EC061E0812FBC
:100650000E9419028881282F30E0F901EE0FFF1F58
:10066000E20FF31FED59FD4F1F736081607C612B1A
:10067000608319821A822CE0622F0E944B0A829FAB
:10068000B001112430E020E0AB01420F531FFA010A
:10069000EE0FFF1FE40FF51FED59FD4F908196FD02
:1006A00016C02F5F3F4F2C30310571F781110FC0FD
:1006B0001092800082E08093810010928500109259
:1006C0008400B19A80916F00826080936F00E8810E
:1006D0008E2F90E0FC01EE0FFF1FE80FF91FED5980
:1006E000FD4F8081806480838881DF91CF911F914D
:1006F0000895FC0101900020E9F73197AF01481BF4
:10070000590BBC0186EC91E00C948C00CF93DF93E5
:100710000E947903EC0182E191E00E9479038C0F41
:100720009D1FDF91CF9108958F929F92AF92BF92BC
:10073000CF92DF92EF92FF920F931F93CF93DF93AD
:10074000CDB7DEB7A1970FB6F894DEBF0FBECDBF11
:100750006C01990FEE08FF08F7FE47C06DE286ECCA
:1007600091E00E942C018C0122273327A9012C192A
:100770003D094E095F0919A2CE0181967C019AE0DC
:10078000892E912CA12CB12CCA01B901A50194018B
:100790000E94E408605DF70162937F012115310535
:1007A0004105510589F790E080E0309719F0CF01BD
:1007B0000E947903080F191F82E191E00E947903DA
:1007C000800F911FA1960FB6F894DEBF0FBECDBF6C
:1007D000DF91CF911F910F91FF90EF90DF90CF901D
:1007E000BF90AF909F908F900895A701960119A296
:1007F0008E010F5D1F4F8AE0C82ED12CE12CF12C09
:10080000CA01B901A70196010E94E408605DF801E0
:1008100062938F01211531054105510589F7309704
:1008200029F0CF010E9479038C01C6CF10E000E0CF
:10083000C3CF0F931F9390E0FC01E255FF4F6491EB
:10084000FC01E656FF4FE491F0E0EE0FFF1FE0578A
:10085000FF4F8591949100E412E42FE030E0462FA1
:100860000E949D05611571058105910529F06F5F55
:100870007F4F8F4F9F4F9F701F910F9108951F9231
:100880000F920FB60F9211242F933F934F935F93C4
:100890006F937F938F939F93AF93BF93EF93FF9348
:1008A00086EC91E00E940A01FF91EF91BF91AF9118
:1008B0009F918F917F916F915F914F913F912F9178
:1008C0000F900FBE0F901F9018951F920F920FB6AA
:1008D0000F9211242F938F939F93EF93FF93E091A7
:1008E000D601F091D7018081E091DC01F091DD012A
:1008F00082FD1BC090818091DF018F5F8F732091FB
:10090000E001821741F0E091DF01F0E0EA53FE4F91
:10091000958F8093DF01FF91EF919F918F912F91A0
:100920000F900FBE0F901F9018958081F4CF1F92EB
:100930000F920FB60F9211242F933F938F939F9393
:10094000AF93BF938091B8019091B901A091BA0182
:10095000B091BB013091B70123E0230F2D3758F53B
:100960000196A11DB11D2093B7018093B80190930A
:10097000B901A093BA01B093BB018091BC019091E1
:10098000BD01A091BE01B091BF010196A11DB11D95
:100990008093BC019093BD01A093BE01B093BF01B1
:1009A000BF91AF919F918F913F912F910F900FBE6B
:1009B0000F901F90189526E8230F0296A11DB11DD8
:1009C000D2CF1F920F920FB60F9211242F933F9305
:1009D0004F935F936F937F938F939F93AF93BF9347
:1009E000CF93DF93EF93FF938091B601C09187027D
:1009F000D0E087FF24C0109285001092840080917F
:100A0000B6018F5F8093B6018091B601082E000C6D
:100A1000990B8C179D0724F48091B6018C30C4F19A
:100A20008091840090918500049680349C4908F45C
:100A30007AC08091840090918500049676C0809160
:100A4000B601082E000C990B8C179D07C4F6E09197
:100A5000B6018E2FEE0F990BFC01EE0FFF1FE80F72
:100A6000F91FED59FD4F808186FFC9CFE091B60196
:100A70008E2FEE0F990BFC01EE0FFF1FE80FF91FF1
:100A8000ED59FD4F808160E08F730E94EB01B7CF7D
:100A90002091840030918500E091B6018E2FEE0FF9
:100AA000990BFC01EE0FFF1FE80FF91FED59FD4FE9
:100AB00081819281820F931F909389008093880097
:100AC000E091B6018E2FEE0F990BFC01EE0FFF1F88
:100AD000E80FF91FED59FD4F808186FF11C0E091AD
:100AE000B6018E2FEE0F990BFC01EE0FFF1FE80FE2
:100AF000F91FED59FD4F808161E08F730E94EB017A
:100B0000FF91EF91DF91CF91BF91AF919F918F9125
:100B10007F916F915F914F913F912F910F900FBEF9
:100B20000F901F90189580E49CE990938900809322
:100B300088008FEF8093B601E3CFCF92DF92EF92E0
:100B4000FF920F931F93E82FF92F05C00150110951
:100B50002109310961F1908196239417B9F305C0F9
:100B6000015011092109310911F190819623941343
:100B7000F7CFC12CD12CE12CF12C0AC08FEFC81A71
:100B8000D80AE80AF80A0C151D052E053F0579F06C
:100B900080818623841791F36C2D7D2D8E2D9F2DC2
:100BA0001F910F91FF90EF90DF90CF90089560E03C
:100BB00070E080E090E01F910F91FF90EF90DF9048
:100BC000CF9008951092C9011092C80188EE93E069
:100BD000A0E0B0E08093CA019093CB01A093CC0138
:100BE000B093CD0184E091E09093C7018093C6015A
:100BF00085EC90E09093D3018093D20184EC90E057
:100C00009093D5018093D40180EC90E09093D7012C
:100C10008093D60181EC90E09093D9018093D80124
:100C200082EC90E09093DB018093DA0186EC90E017
:100C30009093DD018093DC011092DF011092E001BE
:100C40001092E1011092E201809187028C3048F508
:100C500091E0980F9093870280938B0290E0FC01C3
:100C6000EE0FFF1FE80FF91FED59FD4F88EB9BE0DA
:100C700092838183809187028C30B8F491E0980F41
:100C8000909387028093880290E0FC01EE0FFF1F93
:100C9000E80FF91FED59FD4F88EB9BE092838183AC
:100CA00008958FEF80938B02E5CF8FEF80938802BA
:100CB0000895789484B5826084BD84B5816084BDD4
:100CC00085B5826085BD85B5816085BD80916E00EA
:100CD000816080936E00109281008091810082601B
:100CE0008093810080918100816080938100809158
:100CF00080008160809380008091B1008460809347
:100D0000B1008091B00081608093B00080917A0042
:100D1000846080937A0080917A00826080937A0068
:100D200080917A00816080937A0080917A00806857
:100D300080937A001092C100E091D601F091D70122
:100D400082E08083E091D201F091D3011082E091A2
:100D5000D401F091D5018FEC80831092DE01E091F7
:100D6000DA01F091DB0186E08083E091D801F09117
:100D7000D901808180618083E091D801F091D9010F
:100D8000808188608083E091D801F091D9018081D1
:100D900080688083E091D801F091D90180818F7DB6
:100DA000808361E082E00E94190260E083E00E949B
:100DB000190260E084E00E94190260E085E00E9470
:100DC000190260E086E00E94190267E070E08BE89B
:100DD00092E00E941D0368E070E088E892E00E94C3
:100DE0001D0360E08AE00E94190260E089E00E9431
:100DF000190203E010E023E2E22EF12C32E0832E10
:100E0000912CA12CB12C4CE8642E712C5DE2C52EE6
:100E1000D12C84E0282E312C90E0492E90E0592EE0
:100E200089E00E94C201019709F051C08091C4017C
:100E30009091C50101969093C5018093C40185E10D
:100E400091E00E9479038091C4019091C5010E94B4
:100E500094037092C3016092C201C091C201D0910B
:100E6000C301CD32D1058CF0BE0188E892E00E942A
:100E7000A10265E070E080E090E00E946F0221979F
:100E8000D093C301C093C201E8CF60ED77E080E06A
:100E900090E00E946F02D092C301C092C201C09143
:100EA000C201D091C301CD38D1058CF4BE0188E8D0
:100EB00092E00E94A10265E070E080E090E00E9474
:100EC0006F022196D093C301C093C201E8CF8AE09C
:100ED0000E94C201019709F051C08091C401909114
:100EE000C50101979093C5018093C40184E291E00C
:100EF0000E9479038091C4019091C5010E949403DE
:100F00007092C1016092C001C091C001D091C10135
:100F1000CD32D1058CF0BE018BE892E00E94A10297
:100F200065E070E080E090E00E946F022197D0932E
:100F3000C101C093C001E8CF60ED77E080E090E0B0
:100F40000E946F02D092C101C092C001C091C00145
:100F5000D091C101CD38D1058CF4BE018BE892E06F
:100F60000E94A10265E070E080E090E00E946F02C4
:100F70002196D093C101C093C001E8CF60E082E028
:100F80000E94EB01C8010197F1F761E082E00E9445
:100F9000EB01C7010197F1F760E082E00E94EB01ED
:100FA00083E00E941904A50194010E94B208CA01BD
:100FB000B9010E94BF092DEC3CEC48EE51E40E94BF
:100FC00015090E94870962337105810591050CF0AE
:100FD000A6C082E391E00E94860360E082E00E9466
:100FE000EB01C8010197F1F761E082E00E94EB019B
:100FF000C7010197F1F760E082E00E94EB0184E015
:101000000E941904A50194010E94B208CA01B90105
:101010000E94BF092DEC3CEC48EE51E40E941509FA
:101020000E94870962337105810591050CF080C02B
:1010300083E591E00E94860360E082E00E94EB017C
:10104000C8010197F1F761E082E00E94EB01C7015E
:101050000197F1F760E082E00E94EB0185E00E94D9
:101060001904A50194010E94B208CA01B9010E94A5
:10107000BF092DEC3CEC48EE51E40E9415090E949A
:10108000870962337105810591050CF05AC084E728
:1010900091E00E94860360E082E00E94EB01C801BB
:1010A0000197F1F761E082E00E94EB01C70101972F
:1010B000F1F760E082E00E94EB0186E00E941904F3
:1010C000A50194010E94B208CA01B9010E94BF099A
:1010D0002DEC3CEC48EE51E40E9415090E94870972
:1010E0006233710581059105ACF585E991E00E94B7
:1010F00086038091C4019091C5019101281B390B91
:10110000C9010E9494034114510409F489CE0E943C
:10111000F600882309F484CE0E9400007ACE623360
:1011200071058105910509F458CF82E491E053CF10
:10113000623371058105910509F47ECF83E691E064
:1011400079CF623371058105910509F4A4CF84E854
:1011500091E09FCF623371058105910551F285EAD7
:1011600091E0C5CF052E97FB1EF400940E94C9089C
:1011700057FD07D00E94E40807FC03D04EF40C94FE
:10118000C90850954095309521953F4F4F4F5F4F7F
:10119000089590958095709561957F4F8F4F9F4FE3
:1011A00008950E940609A59F900DB49F900DA49FDD
:1011B000800D911D11240895B7FF0C94D1080E9451
:1011C000D108821B930B0895A1E21A2EAA1BBB1B08
:1011D000FD010DC0AA1FBB1FEE1FFF1FA217B30703
:1011E000E407F50720F0A21BB30BE40BF50B661F19
:1011F000771F881F991F1A9469F7609570958095DD
:1012000090959B01AC01BD01CF010895A29FB00153
:10121000B39FC001A39F700D811D1124911DB29F2A
:10122000700D811D1124911D08950E9429090C94AF
:10123000110A0E940A0A58F00E94030A40F029F499
:101240005F3F29F00C94FA0951110C94450A0C9453
:10125000000A0E94220A68F39923B1F3552391F3FF
:10126000951B550BBB27AA2762177307840738F015
:101270009F5F5F4F220F331F441FAA1FA9F335D072
:101280000E2E3AF0E0E832D091505040E695001C26
:10129000CAF72BD0FE2F29D0660F771F881FBB1FE0
:1012A000261737074807AB07B0E809F0BB0B802DBE
:1012B000BF01FF2793585F4F3AF09E3F510578F0EA
:1012C0000C94FA090C94450A5F3FE4F3983ED4F37A
:1012D000869577956795B795F7959F5FC9F7880FBE
:1012E000911D9695879597F90895E1E0660F771F10
:1012F000881FBB1F621773078407BA0720F0621BA1
:10130000730B840BBA0BEE1F88F7E09508950E94CB
:101310008E096894B1110C94450A08950E942A0A16
:1013200088F09F5798F0B92F9927B751B0F0E1F0A6
:10133000660F771F881F991F1AF0BA95C9F714C056
:10134000B13091F00E94440AB1E008950C94440A2F
:10135000672F782F8827B85F39F0B93FCCF386958F
:1013600077956795B395D9F73EF4909580957095EC
:1013700061957F4F8F4F9F4F0895E89409C097FB69
:101380003EF490958095709561957F4F8F4F9F4F5C
:101390009923A9F0F92F96E9BB279395F6958795A0
:1013A00077956795B795F111F8CFFAF4BB0F11F463
:1013B00060FF1BC06F5F7F4F8F4F9F4F16C088230A
:1013C00011F096E911C0772321F09EE8872F762F40
:1013D00005C0662371F096E8862F70E060E02AF081
:1013E0009A95660F771F881FDAF7880F969587956D
:1013F00097F9089597F99F6780E870E060E0089595
:101400009FEF80EC089500240A941616170618061C
:101410000906089500240A941216130614060506F8
:101420000895092E0394000C11F4882352F0BB0F89
:1014300040F4BF2B11F460FF04C06F5F7F4F8F4FEC
:101440009F4F089557FD9058440F551F59F05F3F27
:1014500071F04795880F97FB991F61F09F3F79F0D6
:1014600087950895121613061406551FF2CF469558
:10147000F1DF08C0161617061806991FF1CF8695DA
:101480007105610508940895E894BB2766277727BE
:10149000CB0197F90895991B79E004C0991F96171D
:1014A00008F0961B881F7A95C9F780950895EE0F6E
:0E14B000FF1F0590F491E02D0994F894FFCFF2
:1014BE00000000002C018C00B9007901EA00C80080
:1014CE00DC000D0A0043617220456E74657265641E
:1014DE00203D200043617220457869746564203D8B
:1014EE002000536C6F7431204F63637570696564AF
:1014FE002000536C6F743120417661696C61626CAF
:10150E00652000536C6F7432204F6363757069658C
:10151E00642000536C6F743220417661696C616295
:10152E006C652000536C6F7433204F636375706964
:10153E0065642000536C6F743320417661696C6171
:10154E00626C652000536C6F7434204F636375704A
:10155E006965642000536C6F743420417661696C48
:06156E0061626C652000C3
:00000001FF
